{
  "contractName": "PaymentContract",
  "abi": [
    {
      "inputs": [
        {
          "internalType": "address",
          "name": "_farmer",
          "type": "address"
        },
        {
          "internalType": "address",
          "name": "_buyer",
          "type": "address"
        }
      ],
      "stateMutability": "nonpayable",
      "type": "constructor"
    },
    {
      "anonymous": false,
      "inputs": [
        {
          "indexed": true,
          "internalType": "address",
          "name": "buyer",
          "type": "address"
        },
        {
          "indexed": true,
          "internalType": "address",
          "name": "farmer",
          "type": "address"
        },
        {
          "indexed": false,
          "internalType": "uint256",
          "name": "amount",
          "type": "uint256"
        }
      ],
      "name": "PaymentMade",
      "type": "event"
    },
    {
      "inputs": [],
      "name": "amount",
      "outputs": [
        {
          "internalType": "uint256",
          "name": "",
          "type": "uint256"
        }
      ],
      "stateMutability": "view",
      "type": "function",
      "constant": true
    },
    {
      "inputs": [],
      "name": "buyer",
      "outputs": [
        {
          "internalType": "address",
          "name": "",
          "type": "address"
        }
      ],
      "stateMutability": "view",
      "type": "function",
      "constant": true
    },
    {
      "inputs": [],
      "name": "farmer",
      "outputs": [
        {
          "internalType": "address",
          "name": "",
          "type": "address"
        }
      ],
      "stateMutability": "view",
      "type": "function",
      "constant": true
    },
    {
      "inputs": [
        {
          "internalType": "uint256",
          "name": "_amount",
          "type": "uint256"
        }
      ],
      "name": "setAmount",
      "outputs": [],
      "stateMutability": "nonpayable",
      "type": "function"
    },
    {
      "inputs": [],
      "name": "makePayment",
      "outputs": [],
      "stateMutability": "payable",
      "type": "function",
      "payable": true
    }
  ],
  "bytecode": "0x608060405234801561001057600080fd5b506040516103ee3803806103ee83398101604081905261002f91610082565b600080546001600160a01b039384166001600160a01b031991821617825560018054939094169216919091179091556002556100b4565b80516001600160a01b038116811461007d57600080fd5b919050565b60008060408385031215610094578182fd5b61009d83610066565b91506100ab60208401610066565b90509250929050565b61032b806100c36000396000f3fe60806040526004361061004a5760003560e01c8063271f88b41461004f5780637150d8ae14610071578063aa8c217c1461009c578063d811fcf0146100be578063d8d79700146100d3575b600080fd5b34801561005b57600080fd5b5061006f61006a36600461020d565b6100db565b005b34801561007d57600080fd5b50610086610113565b6040516100939190610225565b60405180910390f35b3480156100a857600080fd5b506100b1610122565b60405161009391906102ec565b3480156100ca57600080fd5b50610086610128565b61006f610137565b6001546001600160a01b0316331461010e5760405162461bcd60e51b8152600401610105906102ab565b60405180910390fd5b600255565b6001546001600160a01b031681565b60025481565b6000546001600160a01b031681565b6001546001600160a01b031633146101615760405162461bcd60e51b815260040161010590610268565b60025434146101825760405162461bcd60e51b815260040161010590610239565b600080546040516001600160a01b03909116913480156108fc02929091818181858888f193505050501580156101bc573d6000803e3d6000fd5b506000546001546040516001600160a01b0392831692909116907f0a58819e8a8484b4b953261f35757d54a8bb44412938c22784e056a69ffa17c9906102039034906102ec565b60405180910390a3565b60006020828403121561021e578081fd5b5035919050565b6001600160a01b0391909116815260200190565b602080825260159082015274125b98dbdc9c9958dd08185b5bdd5b9d081cd95b9d605a1b604082015260600190565b60208082526023908201527f4f6e6c79207468652062757965722063616e206d616b6520746865207061796d604082015262195b9d60ea1b606082015260800190565b60208082526021908201527f4f6e6c79207468652062757965722063616e207365742074686520616d6f756e6040820152601d60fa1b606082015260800190565b9081526020019056fea2646970667358221220196cd5fe7b006162b6ba37f6a9168dbbbd0301fbd3d4c2b9651ac6b5ad78c0b564736f6c63430008000033",
  "immutableReferences": {},
  "source": "// PaymentContract.sol\r\npragma solidity ^0.8.0;\r\n\r\ncontract PaymentContract {\r\n    address public farmer;\r\n    address public buyer;\r\n    uint public amount;\r\n\r\n    event PaymentMade(address indexed buyer, address indexed farmer, uint amount);\r\n\r\n    constructor(address _farmer, address _buyer) {\r\n        farmer = _farmer;\r\n        buyer = _buyer;\r\n        amount = 0;  // Initialize with 0, can be set dynamically\r\n    }\r\n\r\n    // Set the amount dynamically\r\n    function setAmount(uint _amount) public {\r\n        require(msg.sender == buyer, \"Only the buyer can set the amount\");\r\n        amount = _amount;\r\n    }\r\n\r\n    // Transfer payment from buyer to farmer\r\n    function makePayment() public payable {\r\n        require(msg.sender == buyer, \"Only the buyer can make the payment\");\r\n        require(msg.value == amount, \"Incorrect amount sent\");\r\n\r\n        payable(farmer).transfer(msg.value);  // Transfer the payment to the farmer\r\n\r\n        emit PaymentMade(buyer, farmer, msg.value);\r\n    }\r\n}\r\n",
  "sourcePath": "C:\\Users\\khanm\\Documents\\meTry\\crush\\contracts\\PaymentContract.sol",
  "compiler": {
    "name": "solc",
    "version": "0.8.0+commit.c7dfd78e.Emscripten.clang"
  },
  "schemaVersion": "3.4.16",
  "updatedAt": "2024-12-08T17:43:38.298Z",
  "networkType": "ethereum",
  "devdoc": {
    "kind": "dev",
    "methods": {},
    "version": 1
  },
  "userdoc": {
    "kind": "user",
    "methods": {},
    "version": 1
  }
}